:020000040000FA
:0200000049298C
:08000800BB00030E8312B900D6
:10001000981823288C1A282800308A00AF20FF3A2D
:10002000031D14283C081828AF20003E03191B2884
:100030009900B80A1D2883160C128312390E83000A
:10004000BB0E3B0E0900181218160030E5001D28E3
:100050001A08E400E51B6828643A03194628640876
:10006000743A03194B286408633A03195228640848
:10007000443A031959286408543A03195E2864085D
:10008000703A031963283F3099001D28D030E500ED
:100090006230E6001D28C130851DD130E500633097
:1000A000E6001D28C330851DD330E5006030E60032
:1000B0001D288730E5004030E6001D28A730E50008
:1000C0005030E6001D28D030E5006730E6001D28DE
:1000D000660884008313651B712864088000E60AA3
:1000E00094283030E402031C86286408093C031875
:1000F0008A28651E86286408363C031C8628640806
:10010000303C031886282730E4028A280F30851DEA
:100110000030E40065189228F030800564088006FD
:10012000E60A9428640E800065080F390319A02898
:1001300085199E286508D23A03196512E5031D2822
:10014000E51335087F39003A031D1D281430651B5F
:10015000AD281230E51EAD281030B5001D28380836
:10016000820750344C34413459340A34003450340A
:1001700041345534533445340A3400345334543400
:100180004F3450340A3400344E34453458345434E7
:100190000A340034503452344534563449344F34E0
:1001A000553453340A3400344E34583454345F34A4
:1001B0004C344934533454340A34003450345234B7
:1001C00056345F344C344934533454340A34003494
:1001D0003C30A1003830A2000518E828EF28A20B17
:1001E000EC28A10BEA288B132830A1003830A2009C
:1001F000F928A20BF828A10BF62883160510831204
:1002000005102830A1003830A20006290729A20BCA
:100210000529A10B03298316051483128B170800E7
:10022000A0010830A1000310A00D851C15298B1317
:10023000050885181729A200221C2014A10B1429D7
:100240008B1720080800A000A3078316051083124F
:100250000830A1000510851C2B298B13A01F051445
:10026000A00D85183129A10B2A29362983160514DA
:1002700083128B1708003606E03903194129003034
:100280000800361E462936080F390800360EF039A8
:1002900008000030E000E100E2000130E3000E3031
:1002A000E7004730D0005030D1004C30D2002D3024
:1002B000D3003230D4003030D5003030D600333067
:1002C000D7003C30C0004130C1005530C20058302A
:1002D000C3002D30C4004930C5004E30C6003E304A
:1002E000C700B401B501B6018312031385010730BD
:1002F0009F008316EF308500033086000F308104A5
:1003000064008312850186018316263098003330FD
:1003100099008C0183128C0180309800C0308B00D2
:100320003030851DD030B70095292830A1003830F5
:10033000A20085189529051D7129A20B9929A10BE9
:100340009729A3011021A400A307031995291021BF
:10035000A500A3071021A600A3071021A700A3074B
:100360001021A8002302031D9529A61FD9291021B9
:10037000A900A3071021AA00A3071021AB00A3071F
:100380001021AC00A307261FD4291021AD00A3071C
:100390001021AE00A3071021AF00A3071021B00069
:1003A000A3071021B100A3071021B2002302031DEF
:1003B00095291021B300031D9529DE292608013A4D
:1003C0000319032A2608023A0319702A2608203A3C
:1003D00003191C2A2608263A03193F2A2608273A19
:1003E0000319412A2608283A0319432A2608293ADC
:1003F0000319452A2608873A0319292A2608F03ABC
:100400000319342A1B2A2708031971292708023ADD
:100410000319512A2708113A03198E2A2708123A7C
:1004200003199B2A2708133A0319D72A2708153AD4
:100430000319B62A1B2A952934082402031D95297D
:10044000861583168C1283120130B500E820003027
:10045000472A27086B3A031D9529861183168C12AB
:100460008312B5010D30472A270834020319202AC8
:10047000861183168C128312B5010630472A133079
:10048000472A1930472A2330472A2D30472AB800F7
:1004900000308A00AF209900B80A83160C16831228
:1004A0009529B408031D9529A3011030232137088D
:1004B00023218C302321103023212308A20023087C
:1004C00023212208A300FF302321FF302321FF3006
:1004D0002321FF30232123082321003023219529C4
:1004E0002408B4002708B600A301103023213408E3
:1004F0002321851D592A8C302321103023212308E4
:10050000A200230823212208A30005302321A830BC
:10051000232100302321003023216B2AB408031D3E
:100520009529A301103023211830232104302321E1
:10053000003023216B2A34082402031D952964000E
:10054000A3011030232134082321003023218030DF
:10055000B508031D00302321230823210030232167
:1005600035087F39003A031DE82095293508003AFF
:1005700003199529A301103023211830232182303B
:10058000232100303B2123212308A200230823211B
:100590002208A30020303B21232140303B2123218E
:1005A00060303B21232180303B2123216B2A3408FA
:1005B0002402031D9529A301B50A3508023A03193F
:1005C000FE2A3508033A0319202B3508043A03198B
:1005D000422B3508053A03195C2B3508073A0319F5
:1005E000832B3508113A03195A2B3508133A03198E
:1005F000812B3508153A0319422B95297730232191
:1006000034082321C0302321403023212308A200B5
:10061000230823212208A3000030232100302321B6
:1006200000302321003023210030232163082321BF
:100630000030232100302321620E01382321B52B05
:100640007030232134082321C0302321003023219E
:100650002308A200230823212208A300003023211D
:1006600000302321003023210030232100302321BA
:10067000630823210030232100302321620E0D382E
:100680002321B52B703023213408232190302321DE
:10069000503023212308A200230823212208A3008D
:1006A000630823216008232161082321620E670467
:1006B0002321B52B7F30B50070302321340823214E
:1006C000C9302321500823212308A2002308232115
:1006D0002208A30051082321520823215308232173
:1006E0005408232155082321560823215708232184
:1006F00000302321620E851D003067042321B50AD6
:100700006B2A7F30B5007030232134082321CD308F
:100710002321400823212308A200230823212208A3
:10072000A300410823214208232143082321440830
:10073000232145082321460823214708232100308F
:100740002321620E851D003067042321B50A350878
:10075000083A031DB22B1A081A0818121816831625
:100760008C1683128030B5006B2A230823210030B9
:060770002321E820952979
:02400E00E63F8B
:00000001FF
