:1000000012C02BC02AC029C028C027C026C025C0C6
:1000100075C523C018C422C020C01FC01EC01DC08B
:100020001CC01BC01AC011241FBECFE5D4E0DEBF28
:10003000CDBF10E0A0E6B0E0EAE2FBE002C0059030
:100040000D92AA36B107D9F710E0AAE6B0E001C0D8
:100050001D92AE3DB107E1F7B9C4D2CF1F920F9206
:100060000FB60F9211248F939F93EF93FF9390916C
:100070007700E92FFF27E157FF4F8CB18083892F4D
:100080008F5F80937700833310F010927700FF9199
:10009000EF919F918F910F900FBE0F901F90189529
:1000A0005D9BFECF8CB9089510BC83E089B988E9C7
:1000B0008AB986E880BD08958FEF8FB91DB897E3A0
:1000C00092BF84E083BF88B7816088BF08B600FC18
:1000D00006C0892FB39B82BF08B600FEFBCF88B74E
:1000E000816088BF87EC82BF08B600FC05C0B39969
:1000F00082BF08B600FEFBCF88B7816088BF8AEA5E
:1001000082BFBC9AC49A08B600FEFDCFBC98C498C2
:1001100012BE1FB88FB184EC8DB98DB18091CB0028
:1001200080618093CB00089588E88AB920E08091AF
:100130008F0099278434910509F447C084379105CD
:1001400009F063C080919000992701968F7090709C
:1001500054E0880F991F5A95E1F78E6080936900EB
:10016000809191009927C09744E0880F991F4A9584
:10017000E1F7209192002053282B20936600809174
:1001800093009927C09734E0880F991F3A95E1F7BB
:10019000209194002053282B209367008091950094
:1001A0009927C09724E0880F991F2A95E1F720919D
:1001B00096002053282B2093680080917D00809327
:1001C00063008091CA0082601DC080E090E0DC0185
:1001D000AE53BF4FFC01E057FF4F81918E3721F0A6
:1001E0008D932F5F2830C8F3283048F480E2E22F47
:1001F000FF27EE53FF4F81932F5F2830E0F380916C
:10020000CA0081608093CA0057DF10928F0010925D
:10021000770088E98AB908951FB81DB884EC8DB9B4
:100220000895CF93DF93EC018A81803C10F08EE03B
:1002300005C087FF02C089E001C084E080937A0096
:10024000988190937E008981980F80937F008A81A6
:10025000980F809380008B81980F809381009093FA
:10026000820044E080917A00282F332721503040CB
:10027000E42FFF27DF01AC0FBD1F8C91E258FF4F29
:1002800081838C91980F4F5FE42FFF27E217F307CC
:100290007CF340E0E258FF4F9183949A4FB94DB9F7
:1002A000BC9A000084EC8DB98091CB008260809371
:1002B000CB008091DC008F7180628093DC008091A4
:1002C000DD008C7F8093DD0080917E008FB9DF910F
:1002D000CF910895CF93DF93CDB7DEB728970FB6B0
:1002E000F894DEBF0FBECDBF8091CE00992787382E
:1002F000910509F43FC0883891051CF4019729F055
:1003000042C0803F910561F13EC08091CF009927A6
:10031000009719F0029751F023C080E380937D008D
:100320008091CB008F778093CB001AC020917D0005
:100330002033B1F48091CB0080688093CB0090E1B2
:1003400099832A838CE88B839C8384E28D8388EA5B
:100350008E8387E18F8380EA8887CE01019661DFF3
:100360009091CF0080917D00981769F080E880938C
:10037000610008C08091CF00882329F480E8809331
:1003800061009798939828960FB6F894DEBF0FBE39
:10039000CDBFDF91CF910895CF93DF93CDB7DEB777
:1003A00028970FB6F894DEBF0FBECDBF8091CF0067
:1003B000809379008091CE00823041F58091CB000E
:1003C00087FF24C04091CC00842F9927807F9070B4
:1003D00020917C00332782179307C1F480917D0020
:1003E0008033A1F440937D00929A90E199834A83EF
:1003F0008CE88B839C8384E28D8388EA8E8387E1FB
:100400008F8380EA8887CE0101960BDF28960FB68E
:10041000F894DEBF0FBECDBFDF91CF910895CF938B
:10042000DF93CDB7DEB765970FB6F894DEBF0FBE8A
:10043000CDBF8091CA0082FF14C0FE01319688E0D2
:10044000DF011D928A95E9F780E7898380917D001D
:100450008A8380E48C83CF01E4DE8091CA008B7FA5
:1004600084C08091CA00982F987083FF22C080E1D9
:10047000898380917D008A8380E98B8380E58C83EA
:10048000809160008D8386E08E838F8380917800D9
:10049000992764E0880F991F6A95E1F78887CE0154
:1004A0000196BFDE81E0809360008091CA00877F63
:1004B0005CC08091CA0085FF14C080E1898380916F
:1004C0007D008A8384E98B839C839D8380E88E836F
:1004D0009F839887CE010196A4DE8091CA008F7D0C
:1004E00044C08091CA00982F927081FF07C082E6B5
:1004F00090E097DE8091CA008D7F37C08091CA005E
:1005000080FF29C080E7898780917D008A878DECF4
:100510008B878091C2008C878091C3008D878091EA
:10052000C4008E878091C5008F878091C600888B1C
:100530008091C700898B8091C8008A8B8091C90007
:100540008B8B9C8B8EE08D8BCE0109966ADE809121
:10055000CA008E7F0AC08091CA0084FF08C08AE664
:1005600090E05FDE8091CA008F7E8093CA0065961E
:100570000FB6F894DEBF0FBECDBFDF91CF910895C7
:10058000CF93DF93CDB7DEB761970FB6F894DEBF98
:100590000FBECDBF8091CE0099278132910509F41D
:1005A00062C0823291053CF481309105A1F08097C0
:1005B00009F43EC095C08438910509F462C08538BD
:1005C000910524F4C49709F457C08AC0803B910573
:1005D00009F46DC085C08091CF00992782319105C3
:1005E00019F0439719F17CC000008091CB008F7BFC
:1005F0008093CB0080E18E8780917D008F87188A61
:1006000080916100898BCE010E960BDE8091610096
:10061000803411F480E262C0803211F481E25EC065
:10062000813209F05DC0109261005AC0F8DE58C0F6
:10063000939A979A1092610080E7898380917D0058
:100640008A8380EC8B831C821D821E821F82188607
:10065000198681E08A871B861C8688E18D87CE01FA
:100660000196DFDD3DC08091CF008032C9F580E882
:1006700080936100939834C01FDD8091CA0080622E
:1006800013C08091CF0099278539910521F08739D2
:10069000910531F025C010DD8091CA00846004C04E
:1006A0000BDD8091CA0088608093CA0019C0109247
:1006B0006000909178008091CF00891710F0981712
:1006C00010F48093780090918E008091D10089176A
:1006D00010F0981710F480938E0080E480936100EE
:1006E00061960FB6F894DEBF0FBECDBFDF91CF91FC
:1006F00008958091CC00883111F4ECDD089590913B
:100700007D00891711F43CDF089580917C009817D3
:1007100009F442DE089520917B00225030E0ECEC99
:10072000F0E093E08191380F915097FFFBCF94E078
:100730008091D000381751F4921769F48091D2005B
:10074000882349F48091CB00816003C08091CB0065
:100750008E7F8093CB0095E0921738F4E1EDF0E0C6
:100760008191380F9F5F9217D8F39217A9F4E92F60
:10077000FF27E453FF4F8081381749F48181882394
:1007800059F48091CB0081608093CB0008958091D3
:10079000CB008E7F8093CB000895282F2F708295F9
:1007A0008F709AE0899FC0011124280F822F99270A
:1007B00008958F708A3018F4805D99270895895CB8
:1007C00099270895EF92FF921F93CF938091CB00CA
:1007D00083FF12C08091CB00877F8093CB00EEE730
:1007E000EE2EE0E0FE2EC0917A00CF5F8AE058DC6A
:1007F0008DE056DC83E20CC08AE052DC8DE050DCF8
:100800007CECE72E70E0F72EC0917B00C1508BEAA4
:1008100047DCCC2379F0F70111917F01812F82957C
:100820008F70C7DF3DDC812FC4DF3ADC80E238DC2B
:10083000C150EFCF80E334DC80E332DCCF911F91F5
:10084000FF90EF90089578941F920F920FB60F9239
:1008500011242F933F934F935F936F937F938F93C5
:100860009F93AF93BF93EF93FF938091CB0081FD54
:1008700044C0949A8091DC008F71E82FFF27E453E5
:10088000FF4F8FB18083C8DC8091CC00882329F48E
:100890008091DC008F7109F488C086E080937B0032
:1008A0009091CE0097FF03C08BE080937B00903C3B
:1008B00018F080E180937B008091DC008091DC0067
:1008C0008F718F5F8F719091DC00907E982B909349
:1008D000DC008091DC008F7190917B00891708F417
:1008E00064C094988091DC00807E8093DC008091CD
:1008F000CB0084608093CB0058C08091DC0082954F
:10090000869587709091DD009370990F990F990FDC
:10091000982B80917A008917C0F19091DC00929514
:10092000969597708091DD008370880F880F880FEF
:10093000892BE82FFF27E258FF4F80818FB98091E4
:10094000DC008091DD008091DC00829586958770C7
:100950009091DD009370990F990F990F982B9F5FDD
:10096000292F2295220F207E8091DC008F71822B0F
:100970008093DC0096959695969593708091DD0016
:100980008C7F892B8093DD0010C046DC1FB88091DE
:10099000CB008D7F8093CB008091CB0088608093CB
:1009A000CB0010DF9498BC980000FF91EF91BF91AD
:1009B000AF919F918F917F916F915F914F913F91F7
:1009C0002F910F900FBE0F901F901895CFE5D4E098
:1009D000DEBFCDBFF89488E190E02FE00FB6F89429
:1009E000A89581BD0FBE21BD1BBE18BA17BA15BA96
:1009F00014BA12BA8CE181BB84E089BF13BE1FBC5C
:100A000080EC98EC9DBD8CBD1EBC84EC8DB980E45F
:100A100087BB1FB849DB80E380937D0080937C0017
:100A200086E18093780010928E008091CB008F77C2
:100A30008093CB00789494E592BF84E083BF08B69E
:100A400000FC06C0892FB39B82BF08B600FEFBCF17
:100A500088B7816088BF84E582BF08B600FC05C006
:100A6000B39982BF08B600FEFBCF12BEB39B01C094
:100A7000A89580918F00843729F480917700883081
:100A800038F125C0843411F0843559F4E0917700B1
:100A9000E131E8F4FF27E257FF4F80818E37C1F440
:100AA00016C08A32A9F49091920097FD04C08091FB
:100AB0007700853060F4903C20F480917700893095
:100AC00030F4903C28F0809177008E3008F02CDBD9
:100AD0008091CB0082FFCACF8091CB008B7F809327
:100AE000CB0019DE8091CB0080FFC0CF02DE809169
:100AF000CB00877F8093CB0065DEB8CF1F920F922B
:100B00000FB60F9211248F939F938091CB00806238
:100B10008093CB0080EC98EC9DBD8CBD9F918F9114
:0A0B20000F900FBE0F901F90189564
:0A0B2A000180700090500100001ED1
:00000001FF
