:1000000012C02BC02AC029C028C027C026C025C0C6
:100010001AC523C013C122C020C01FC01EC01DC0EE
:100020001CC01BC01AC011241FBECFE5D4E0DEBF28
:10003000CDBF10E0A0E6B0E0E4E7FAE002C0059032
:100040000D92AA36B107D9F710E0AAE6B0E001C0D8
:100050001D92AE3DB107E1F765C4D2CF1F920F925A
:100060000FB60F9211248F939F93EF93FF9390916C
:100070007700E92FFF27E157FF4F8CB18083892F4D
:100080008F5F80937700833310F010927700FF9199
:10009000EF919F918F910F900FBE0F901F90189529
:1000A000482F21E030E08BB1992755E09695879550
:1000B0005A95E1F78170907082179307A1F74CB9B8
:1000C000089510BC83E089B988E98AB986E880BDC3
:1000D00008958FEF8FB91DB897E392BF84E083BF77
:1000E00088B7816088BF08B600FC06C0892FB39B23
:1000F00082BF08B600FEFBCF88B7816088BF87EC5F
:1001000082BF08B600FC05C0B39982BF08B600FEE6
:10011000FBCF88B7816088BF8AEA82BFBC9AC49A45
:1001200008B600FEFDCFBC98C49812BE1FB88FB1B0
:100130008CEC8DB98DB18091CB0080618093CB0028
:10014000089588E88AB920E080918F009927843447
:10015000910509F447C08437910509F063C0809187
:100160009000992701968F709070F4E0880F991F86
:10017000FA95E1F78E60809368008091910099274D
:10018000C097E4E0880F991FEA95E1F7209192006B
:100190002053282B20936500809193009927C097C6
:1001A00074E0880F991F7A95E1F72091940020530D
:1001B000282B20936600809195009927C09764E0D2
:1001C000880F991F6A95E1F7209196002053282BFC
:1001D0002093670080917C00809362008091CA0028
:1001E00082601DC080E090E0DC01AE53BF4FFC0197
:1001F000E057FF4F81918E3721F08D932F5F28308C
:10020000C8F3283048F480E2E22FFF27EE53FF4F77
:1002100081932F5F2830E0F38091CA008160809342
:10022000CA0057DF10928F001092770088E98AB9D0
:1002300008951FB81DB88CEC8DB9089578941F925D
:100240000F920FB60F9211242F933F934F935F930A
:100250006F937F938F939F93AF93BF93EF93FF938E
:100260008091CB0081FD42C08091DC008F71E82F2E
:10027000FF27E453FF4F8FB18083DBDF8091CC00F9
:10028000882329F48091DC008F7109F480C086E016
:1002900080937A009091CE0097FF03C08BE080930B
:1002A0007A00903C18F080E180937A008091DC0025
:1002B0008091DC008F718F5F8F719091DC00907E58
:1002C000982B9093DC008091DC008F7190917A00E4
:1002D000891708F45CC08091DC00807E8093DC008C
:1002E0008091CB0084608093CB0051C08091DC0072
:1002F0008295869587709091DD009370990F990F84
:10030000990F982B809179008917C0F19091DC00AA
:100310009295969597708091DD008370880F880F75
:10032000880F892BE82FFF27E258FF4F80818FB974
:100330008091DC008091DD008091DC0082958695C3
:1003400087709091DD009370990F990F990F982BFA
:100350009F5F292F2295220F207E8091DC008F71D4
:10036000822B8093DC00969596959695937080915C
:10037000DD008C7F892B8093DD0009C05ADF1FB818
:100380008091CB008D7F8093CB00BC980000FF91C3
:10039000EF91BF91AF919F918F917F916F915F91FD
:1003A0004F913F912F910F900FBE0F901F90189576
:1003B000CF93DF93EC018A81803C10F08EE005C082
:1003C00087FF02C089E001C084E0809379009881B2
:1003D00090937E008981980F80937F008A81980F87
:1003E000809380008B81980F80938100909382008E
:1003F00044E080917900282F332721503040E42FAA
:10040000FF27DF01AC0FBD1F8C91E258FF4F8183A6
:100410008C91980F4F5FE42FFF27E217F3077CF3CF
:1004200040E0E258FF4F91834FB94DB9BC9A0000AC
:100430008CEC8DB98091CB0082608093CB00809151
:10044000DC008F7180628093DC008091DD008C7F06
:100450008093DD0080917E008FB9DF91CF91089568
:10046000CF93DF93CDB7DEB728970FB6F894DEBFF2
:100470000FBECDBF8091CE0099278738910509F432
:1004800040C0883891051CF4019729F044C0803F92
:10049000910561F140C08091CF009927009719F034
:1004A000029751F023C080E380937C008091CB00C1
:1004B0008F778093CB001AC020917C002033B1F459
:1004C0008091CB0080688093CB0090E199832A8350
:1004D0008CE88B839C8384E28D8388EA8E8387E11A
:1004E0008F8380EA8887CE01019662DF9091CF00EA
:1004F00080917C00981779F080E88093600083E514
:1005000009C08091CF00882331F480E88093600097
:1005100097988FE4C5DD28960FB6F894DEBF0FBE1E
:10052000CDBFDF91CF910895CF93DF93CDB7DEB7E5
:1005300028970FB6F894DEBF0FBECDBF8091CF00D5
:10054000809378008091CE00823039F58091CB0085
:1005500087FF23C04091CC00842F9927807F907023
:1005600020917B00332782179307B9F480917C0098
:10057000803399F440937C0090E199834A838CE81E
:100580008B839C8384E28D8388EA8E8387E18F83CB
:1005900080EA8887CE0101960BDF28960FB6F89483
:1005A000DEBF0FBECDBFDF91CF910895CF93DF9314
:1005B000CDB7DEB765970FB6F894DEBF0FBECDBFDF
:1005C0008091CA0082FF15C080E7898380917C00FA
:1005D0008A8385E98B8380E18C831D821E821F8242
:1005E0008AE08887CE010196E3DE8091CA008B7F86
:1005F0005EC08091CA0083FF16C080E78983809126
:100600007C008A8387E98B8381E08C838D8389E9F1
:100610008E838F838AE08887CE010196C9DE809120
:10062000CA00877F44C08091CA00982F927081FFD2
:1006300007C081E690E0BCDE8091CA008D7F37C0A4
:100640008091CA0080FF29C080E7898780917C0063
:100650008A878DEC8B878091C2008C878091C30044
:100660008D878091C4008E878091C5008F8780918F
:10067000C600888B8091C700898B8091C8008A8BC7
:100680008091C9008B8B9C8B8EE08D8BCE0109965F
:100690008FDE8091CA008E7F0AC08091CA0084FFDD
:1006A00008C08AE690E084DE8091CA008F7E809345
:1006B000CA0065960FB6F894DEBF0FBECDBFDF91BE
:1006C000CF910895CF93DF93CDB7DEB761970FB683
:1006D000F894DEBF0FBECDBF8091CE009927853242
:1006E000910509F46EC08632910594F4803291052B
:1006F00009F43FC0813291051CF40197E9F09DC0D7
:100700008132910509F451C0849709F458C095C00D
:100710008533910509F459C08633910524F4C497B3
:1007200009F451C08AC08438910509F450C0803B57
:10073000910509F462C081C08091CF009927823170
:10074000910519F0439799F078C000008091CB0093
:100750008F7B8093CB0080E18E8780917C008F8798
:10076000188A80916000898BCE010E961CC01EDF16
:1007700064C080E595DC979A1092600080E78983D9
:1007800080917C008A8380EC8B831C821D821E8278
:100790001F821886198681E08A871B861C8688E15D
:1007A0008D87CE01019604DE48C08091CF00803253
:1007B00009F043C080E88093600080E53DC086E496
:1007C0003BC082E539C082E737C083E735C08091FE
:1007D000CF0099278539910521F08739910531F0AE
:1007E0002CC077DC8091CA00846004C072DC8091E8
:1007F000CA0088608093CA0020C090917D008091DB
:10080000CF00891720F480937D0084E405C09817F9
:1008100020F480937D0084E643DC90918E008091EB
:10082000D100891720F480938E0084E505C09817C5
:1008300020F480938E0084E733DC61960FB6F89441
:10084000DEBF0FBECDBFDF91CF9108958091CC0068
:10085000883111F405DE089590917C00891711F418
:1008600031DF089580917B00981709F45DDE0895CB
:10087000089520917A00225030E0ECECF0E093E013
:100880008191380F915097FFFBCF94E08091D00079
:10089000381751F4921769F48091D200882349F4F3
:1008A0008091CB00816003C08091CB008E7F8093CC
:1008B000CB0095E0921738F4E1EDF0E08191380F2C
:1008C0009F5F9217D8F39217A9F4E92FFF27E453FB
:1008D000FF4F8081381749F48181882359F4809132
:1008E000CB0081608093CB0008958091CB008E7FF8
:1008F0008093CB0008950895282F2F7082958F70D4
:100900009AE0899FC0011124280F822F992708950A
:100910008F708A3018F4805D99270895895C992733
:1009200008950895CFE5D4E0DEBFCDBFF89488E107
:1009300090E02FE00FB6F894A89581BD0FBE21BDC1
:100940001BBE18BA17BA15BA14BA12BA80E881BB1E
:1009500084E089BF13BE1FBC80EC98EC9DBD8CBDAC
:100960001EBC8CEC8DB980E487BB1FB8AADB80E38A
:1009700080937C0080937B0010927D0010928E000B
:100980008091CB008F778093CB00789494E592BFD1
:1009900084E083BF08B600FC06C0892FB39B82BFEA
:1009A00008B600FEFBCF88B7816088BF84E582BFB0
:1009B00008B600FC05C0B39982BF08B600FEFBCFA5
:1009C00012BEB39B01C0A89580918F00843729F493
:1009D00080917700883038F125C0843411F0843557
:1009E00059F4E0917700E131E8F4FF27E257FF4F37
:1009F00080818E37C1F416C08A32A9F4909192009A
:100A000097FD04C080917700853060F4903C20F41D
:100A100080917700893030F4903C28F08091770005
:100A20008E3008F08EDB8091CB0082FFCACF8091A0
:100A3000CB008B7F8093CB001CDF8091CB0080FFAD
:100A4000C0CF04DFBECF1F920F920FB60F921124BA
:100A50008F939F938091CB0080628093CB0080EC3A
:100A600098EC9DBD8CBD9F918F910F900FBE0F9004
:040A70001F90189526
:0A0A740080700090500100001E0089
:00000001FF
